{
  "contractName": "Bcoc",
  "abi": [
    {
      "constant": false,
      "inputs": [
        {
          "name": "_userID",
          "type": "string"
        },
        {
          "name": "_walletAddress",
          "type": "address"
        },
        {
          "name": "_userIpfsHash",
          "type": "string"
        }
      ],
      "name": "registration",
      "outputs": [],
      "payable": false,
      "stateMutability": "nonpayable",
      "type": "function",
      "signature": "0xe1887ecc"
    },
    {
      "constant": true,
      "inputs": [
        {
          "name": "_userID",
          "type": "string"
        }
      ],
      "name": "login",
      "outputs": [
        {
          "name": "",
          "type": "string"
        },
        {
          "name": "",
          "type": "address"
        }
      ],
      "payable": false,
      "stateMutability": "view",
      "type": "function",
      "signature": "0x3a7d280c"
    },
    {
      "constant": false,
      "inputs": [
        {
          "name": "_evidenceID",
          "type": "string"
        },
        {
          "name": "_evidenceIpfsHash",
          "type": "string"
        }
      ],
      "name": "createEvidence",
      "outputs": [],
      "payable": false,
      "stateMutability": "nonpayable",
      "type": "function",
      "signature": "0xa4c04774"
    },
    {
      "constant": false,
      "inputs": [
        {
          "name": "_evidenceID",
          "type": "string"
        },
        {
          "name": "_newOwnerID",
          "type": "string"
        }
      ],
      "name": "transferEvidence",
      "outputs": [
        {
          "name": "",
          "type": "bool"
        }
      ],
      "payable": false,
      "stateMutability": "nonpayable",
      "type": "function",
      "signature": "0x0a448200"
    },
    {
      "constant": true,
      "inputs": [
        {
          "name": "_evidenceID",
          "type": "string"
        }
      ],
      "name": "getEvidence",
      "outputs": [
        {
          "name": "",
          "type": "string"
        }
      ],
      "payable": false,
      "stateMutability": "view",
      "type": "function",
      "signature": "0xb16c6ee7"
    }
  ],
  "bytecode": "0x608060405234801561001057600080fd5b50611035806100206000396000f3fe60806040526004361061006d576000357c0100000000000000000000000000000000000000000000000000000000900463ffffffff1680630a448200146100725780633a7d280c146101e9578063a4c047741461035d578063b16c6ee7146104bc578063e1887ecc146105fd575b600080fd5b34801561007e57600080fd5b506101cf6004803603604081101561009557600080fd5b81019080803590602001906401000000008111156100b257600080fd5b8201836020820111156100c457600080fd5b803590602001918460018302840111640100000000831117156100e657600080fd5b91908080601f016020809104026020016040519081016040528093929190818152602001838380828437600081840152601f19601f8201169050808301925050505050505091929192908035906020019064010000000081111561014957600080fd5b82018360208201111561015b57600080fd5b8035906020019184600183028401116401000000008311171561017d57600080fd5b91908080601f016020809104026020016040519081016040528093929190818152602001838380828437600081840152601f19601f82011690508083019250505050505050919291929050505061077c565b604051808215151515815260200191505060405180910390f35b3480156101f557600080fd5b506102af6004803603602081101561020c57600080fd5b810190808035906020019064010000000081111561022957600080fd5b82018360208201111561023b57600080fd5b8035906020019184600183028401116401000000008311171561025d57600080fd5b91908080601f016020809104026020016040519081016040528093929190818152602001838380828437600081840152601f19601f820116905080830192505050505050509192919290505050610987565b60405180806020018373ffffffffffffffffffffffffffffffffffffffff1673ffffffffffffffffffffffffffffffffffffffff168152602001828103825284818151815260200191508051906020019080838360005b83811015610321578082015181840152602081019050610306565b50505050905090810190601f16801561034e5780820380516001836020036101000a031916815260200191505b50935050505060405180910390f35b34801561036957600080fd5b506104ba6004803603604081101561038057600080fd5b810190808035906020019064010000000081111561039d57600080fd5b8201836020820111156103af57600080fd5b803590602001918460018302840111640100000000831117156103d157600080fd5b91908080601f016020809104026020016040519081016040528093929190818152602001838380828437600081840152601f19601f8201169050808301925050505050505091929192908035906020019064010000000081111561043457600080fd5b82018360208201111561044657600080fd5b8035906020019184600183028401116401000000008311171561046857600080fd5b91908080601f016020809104026020016040519081016040528093929190818152602001838380828437600081840152601f19601f820116905080830192505050505050509192919290505050610b2f565b005b3480156104c857600080fd5b50610582600480360360208110156104df57600080fd5b81019080803590602001906401000000008111156104fc57600080fd5b82018360208201111561050e57600080fd5b8035906020019184600183028401116401000000008311171561053057600080fd5b91908080601f016020809104026020016040519081016040528093929190818152602001838380828437600081840152601f19601f820116905080830192505050505050509192919290505050610c5d565b6040518080602001828103825283818151815260200191508051906020019080838360005b838110156105c25780820151818401526020810190506105a7565b50505050905090810190601f1680156105ef5780820380516001836020036101000a031916815260200191505b509250505060405180910390f35b34801561060957600080fd5b5061077a6004803603606081101561062057600080fd5b810190808035906020019064010000000081111561063d57600080fd5b82018360208201111561064f57600080fd5b8035906020019184600183028401116401000000008311171561067157600080fd5b91908080601f016020809104026020016040519081016040528093929190818152602001838380828437600081840152601f19601f820116905080830192505050505050509192919290803573ffffffffffffffffffffffffffffffffffffffff169060200190929190803590602001906401000000008111156106f457600080fd5b82018360208201111561070657600080fd5b8035906020019184600183028401116401000000008311171561072857600080fd5b91908080601f016020809104026020016040519081016040528093929190818152602001838380828437600081840152601f19601f820116905080830192505050505050509192919290505050610e35565b005b60003373ffffffffffffffffffffffffffffffffffffffff166002846040518082805190602001908083835b6020831015156107cd57805182526020820191506020810190506020830392506107a8565b6001836020036101000a038019825116818451168082178552505050505050905001915050908152602001604051809103902060009054906101000a900473ffffffffffffffffffffffffffffffffffffffff1673ffffffffffffffffffffffffffffffffffffffff1614151561084357600080fd5b600080836040518082805190602001908083835b60208310151561087c5780518252602082019150602081019050602083039250610857565b6001836020036101000a038019825116818451168082178552505050505050905001915050908152602001604051809103902060009054906101000a900473ffffffffffffffffffffffffffffffffffffffff169050806002856040518082805190602001908083835b60208310151561090b57805182526020820191506020810190506020830392506108e6565b6001836020036101000a038019825116818451168082178552505050505050905001915050908152602001604051809103902060006101000a81548173ffffffffffffffffffffffffffffffffffffffff021916908373ffffffffffffffffffffffffffffffffffffffff160217905550600191505092915050565b6060600060606001846040518082805190602001908083835b6020831015156109c557805182526020820191506020810190506020830392506109a0565b6001836020036101000a03801982511681845116808217855250505050505090500191505090815260200160405180910390208054600181600116156101000203166002900480601f016020809104026020016040519081016040528092919081815260200182805460018160011615610100020316600290048015610a8c5780601f10610a6157610100808354040283529160200191610a8c565b820191906000526020600020905b815481529060010190602001808311610a6f57829003601f168201915b50505050509050600080856040518082805190602001908083835b602083101515610acc5780518252602082019150602081019050602083039250610aa7565b6001836020036101000a038019825116818451168082178552505050505050905001915050908152602001604051809103902060009054906101000a900473ffffffffffffffffffffffffffffffffffffffff1690508181935093505050915091565b336002836040518082805190602001908083835b602083101515610b685780518252602082019150602081019050602083039250610b43565b6001836020036101000a038019825116818451168082178552505050505050905001915050908152602001604051809103902060006101000a81548173ffffffffffffffffffffffffffffffffffffffff021916908373ffffffffffffffffffffffffffffffffffffffff160217905550806003836040518082805190602001908083835b602083101515610c125780518252602082019150602081019050602083039250610bed565b6001836020036101000a03801982511681845116808217855250505050505090500191505090815260200160405180910390209080519060200190610c58929190610f64565b505050565b60603373ffffffffffffffffffffffffffffffffffffffff166002836040518082805190602001908083835b602083101515610cae5780518252602082019150602081019050602083039250610c89565b6001836020036101000a038019825116818451168082178552505050505050905001915050908152602001604051809103902060009054906101000a900473ffffffffffffffffffffffffffffffffffffffff1673ffffffffffffffffffffffffffffffffffffffff16141515610d2457600080fd5b60606003836040518082805190602001908083835b602083101515610d5e5780518252602082019150602081019050602083039250610d39565b6001836020036101000a03801982511681845116808217855250505050505090500191505090815260200160405180910390208054600181600116156101000203166002900480601f016020809104026020016040519081016040528092919081815260200182805460018160011615610100020316600290048015610e255780601f10610dfa57610100808354040283529160200191610e25565b820191906000526020600020905b815481529060010190602001808311610e0857829003601f168201915b5050505050905080915050919050565b816000846040518082805190602001908083835b602083101515610e6e5780518252602082019150602081019050602083039250610e49565b6001836020036101000a038019825116818451168082178552505050505050905001915050908152602001604051809103902060006101000a81548173ffffffffffffffffffffffffffffffffffffffff021916908373ffffffffffffffffffffffffffffffffffffffff160217905550806001846040518082805190602001908083835b602083101515610f185780518252602082019150602081019050602083039250610ef3565b6001836020036101000a03801982511681845116808217855250505050505090500191505090815260200160405180910390209080519060200190610f5e929190610f64565b50505050565b828054600181600116156101000203166002900490600052602060002090601f016020900481019282601f10610fa557805160ff1916838001178555610fd3565b82800160010185558215610fd3579182015b82811115610fd2578251825591602001919060010190610fb7565b5b509050610fe09190610fe4565b5090565b61100691905b80821115611002576000816000905550600101610fea565b5090565b9056fea165627a7a72305820cb5fa6280fe894e8394b5386d1449c09ed51a5a5bebcd4d9a82c84af511759150029",
  "source": "pragma solidity >=0.4.22 <0.6.0;\n\ncontract Bcoc {\n    \n    //mapper function for registration\n    \n    mapping (string => address) private userAddress;\n    mapping (string => string) private userHash;\n    \n    //mapper function for createEvidence\n    \n    mapping (string => address) private evidenceOwner;\n    mapping (string => string) private evidenceIpfsHash;\n    \n    function registration(string memory _userID, address _walletAddress, string memory _userIpfsHash) public {\n        userAddress[_userID] = _walletAddress;\n        userHash[_userID] = _userIpfsHash;\n    }\n    \n    function login (string memory _userID) view public returns (string memory, address) {\n        string memory _userIpfsHash = userHash[_userID];\n        address _userWalletAddress = userAddress[_userID];\n        return (_userIpfsHash, _userWalletAddress);\n    }\n    \n    function createEvidence(string memory _evidenceID, string memory _evidenceIpfsHash) public {\n        evidenceOwner[_evidenceID] = msg.sender;\n        evidenceIpfsHash[_evidenceID] = _evidenceIpfsHash;\n    }\n    \n    function transferEvidence(string memory _evidenceID, string memory _newOwnerID) public returns (bool) {\n        require(evidenceOwner[_evidenceID] == msg.sender);\n        address currentOwnerAddress = userAddress[_newOwnerID];\n        evidenceOwner[_evidenceID] = currentOwnerAddress;\n        return true;\n    }\n    \n    function getEvidence(string memory _evidenceID) view public returns (string memory) {\n        require(evidenceOwner[_evidenceID] == msg.sender);\n        string memory evidenceHash = evidenceIpfsHash[_evidenceID];\n        return evidenceHash;\n    }\n}\n",
  "sourcePath": "/home/mahir/bcoc/bcocTruffle/contracts/Bcoc.sol",
  "compiler": {
    "name": "solc",
    "version": "0.5.0+commit.1d4f565a.Emscripten.clang"
  },
  "schemaVersion": "3.0.1",
  "updatedAt": "2019-09-26T14:09:37.640Z",
  "devdoc": {
    "methods": {}
  },
  "userdoc": {
    "methods": {}
  }
}